:020000040800F2
:10000000585F0020C5020008890F0008470F00084C
:10001000850F0008C10B0008631D000800000000E8
:100020000000000000000000000000002D02000899
:10003000610C000800000000710200089D17000814
:10004000DF020008DF020008DF0200089113000849
:10005000DF020008DF020008650C0008DF0200086C
:100060007D0C0008A90C0008D50C0008DF02000870
:10007000DF020008DF020008DF020008DF020008DC
:10008000DF020008DF020008DF020008DF020008CC
:10009000DF020008DF020008DF020008DF020008BC
:1000A000DF020008DF020008DF020008DF020008AC
:1000B000DF0200080D180008CD180008DF02000854
:1000C000DF020008DF020008DF020008DF0200088C
:1000D000DF020008411B0008DF020008DF02000801
:1000E000DF020008DF020008DF020008DF0200086C
:1000F000DF020008DF020008DF020008DF0200085C
:10010000DF0200081D150008DF020008DF020008FA
:10011000DF020008DF020008DF020008DF0200083B
:10012000DF020008DF020008DF020008DF0200082B
:1001300000F002F800F06BF80AA090E8000C82448E
:100140008344AAF10107DA4501D100F060F8AFF26B
:10015000090EBAE80F0013F0010F18BFFB1A43F0A5
:1001600001031847F0510000105200000A444FF0FC
:10017000000C10F8013B13F0070408BF10F8014B06
:100180001D1108BF10F8015B641E05D010F8016B4B
:10019000641E01F8016BF9D113F0080F1EBF10F8AF
:1001A000014BAD1C0C1B09D16D1E58BF01F801CBD2
:1001B000FAD505E014F8016B01F8016B6D1EF9D555
:1001C0009142D6D37047000000230024002500266A
:1001D000103A28BF78C1FBD8520728BF30C148BFAA
:1001E0000B607047642900F0EB80752900F0E8800F
:1001F000782900F02181632900F0DA82732900F068
:10020000DF82002070471FB51FBD10B510BD00F084
:1002100071FB1146FFF7F7FF01F040FE00F08FFB86
:1002200003B4FFF7F2FF03BC01F0A4FD224B1968F1
:100230000868B0E8F00F80F30988BFF36F8F4FF0C4
:10024000000080F311884EF00D0E70470000000092
:1002500006480068006880F3088862B661B6BFF39C
:100260004F8FBFF36F8F00DF00BF00BF08ED00E0CE
:10027000EFF30980BFF36F8F0F4B1A6820E9F00F7F
:10028000106008B54FF0500080F31188BFF34F8F16
:10029000BFF36F8F04F0D8F84FF0000080F311889F
:1002A000BDE8084019680868B0E8F00F80F30988D5
:1002B000BFF36F8F704700BF84010020EFF305800C
:1002C000704700000948804709480047FEE7FEE7FD
:1002D000FEE7FEE7FEE7FEE7FEE7FEE7FEE7FEE7F6
:1002E00004480549054A064B70470000AD17000851
:1002F0003101000858590020585F0020585B002049
:10030000585B0020704700000FB4044910B503AAE1
:10031000029800F059FA10BC5DF814FB3000002080
:1003200070B5044685690068C10601D5302600E035
:100330002026C00707D070BDD4E901213046904780
:10034000206A401C20626D1EF6D570BD70B5044653
:1003500085690078C00707D170BDD4E9012120204C
:100360009047206A401C20626D1EF6D570BD70B5A6
:100370000C460546012A05D02878800600D5EA6992
:10038000002302E0012305E05B1C934202D2E05C03
:100390000028F9D1A869E618C01AA861286A18448B
:1003A00028622846FFF7BCFF04E0D5E9012114F8D4
:1003B000010B9047B442F8D32846FFF7C7FF70BD42
:1003C0002DE9F0410646002410687529314616A52E
:1003D00010D0AFF30080002802DA404213A507E0F6
:1003E00031688A0701D512A502E0490704D511A595
:1003F000012401E0AFF3008000210A2206F1240766
:1004000009E0B0FBF2FCB0FBF2F302FB1C00303061
:1004100078541846491C0028F3D123462A46304612
:10042000BDE8F04100F049B9000000002D000000D7
:100430002B0000002000000070B504460D46214648
:100440001068AFF300802188090502D50F4A7A446D
:1004500002E00E4A7A440E32002104F1240305E042
:1004600000F00F060009965D5E54491C0028F7D184
:1004700020780023000704D5702D02D009B1022393
:1004800011322046BDE8704000F017B9F64D00006B
:100490002DE9F05F894604464FF0000ADFF874B199
:1004A000FB44C0F820A02046E1688847002874D0AB
:1004B000252806D0D4E901219047206A401C2062FB
:1004C000F1E700265F462046E16888472028054678
:1004D00007DB312D05D2781910F8200C08B106433E
:1004E000F1E7B00701D526F00406C4F81CA00027E8
:1004F000C4F818A02A2D09D0284601F034FC38B3DE
:1005000004EB8708303DC8F8185019E059F8041B6F
:10051000204604EB87029161E1688847012F054678
:1005200018D1E069002820DA26F020061DE0D8F86E
:10053000180000EB800005EB40003038C8F81800C8
:100540002046E1688847054601F00DFC0028EED101
:10055000012F0AD02E2D08D12046E16888477F1C44
:100560000546022F46F02006C4DBA069002803DA06
:10057000404246F00106A061F00701D026F01006C7
:100580006C2D0BD0682D09D04C2D39D06A2D35D06B
:10059000742D35D07A2D33D016E038E0E1682F463F
:1005A00020468847B842054609D16C2F26D04FF423
:1005B0008060E168064320468847054604E06C2FCA
:1005C0001AD04FF4807006430DB3A5F141001928ED
:1005D00002D8203546F400664A4629462046266061
:1005E0004E46FFF7FFFD80B101280BD0F61D26F027
:1005F000070000F1080956E74020E4E78020D8E72B
:100600000020D6E706F104094DE7284652E7206AA4
:10061000BDE8F09FCC4D0000032A40F2308010F07E
:10062000030C00F0158011F8013BBCF1020F62448D
:1006300098BF11F801CB00F8013B38BF11F8013B1E
:10064000A2F1040298BF00F801CB38BF00F8013BCB
:1006500011F0030300F0CA80083AC0F0088051F896
:10066000043B083A51F804CBA0E80810F5E7121D46
:100670005CBF51F8043B40F8043BAFF30080D20765
:1006800024BF11F8013B11F801CB48BF11F8012B31
:1006900024BF00F8013B00F801CB48BF00F8012B54
:1006A000704702F0FF0343EA032242EA024200F0ED
:1006B000D1B870477047704770472DE9F0470D4635
:1006C00099469246044600F124080168880604D53C
:1006D000E06921F01001216000E00120A84201DD65
:1006E000471B00E00027A1697A1902EB0900081AEC
:1006F000A0612078C00602D42046FFF711FE002634
:1007000008E0D4E901211AF806009047206A401C4D
:10071000761C20624E45F4DB2078C0060AD52046C0
:10072000FFF7FEFD06E0D4E9012130209047206A62
:10073000401C2062381EA7F10107F4DC07E0D4E971
:10074000012118F805009047206A401C2062281EED
:10075000A5F10105F3DC2046FFF7F8FD207800063F
:1007600002D50220BDE8F0870120FBE701694A1CA1
:1007700002610878704700B58FB0CDE901310021E2
:10078000059105497944CDE9031011466846FFF704
:100790007FFE0FB000BD0000E5FFFFFF10B543690D
:1007A00013B1AFF3008001E0FFF7E1FD012010BDC0
:1007B000127800F124010A7000224A700122EDE74C
:1007C00011684FF0FF32E9E7074B70B50D467B44E7
:1007D000FFF7D1FF0446284600F05CF810B14FF057
:1007E000FF3070BD204670BD8F16000010B5203A56
:1007F000C0F00B80B1E81850203AA0E81850B1E8DA
:100800001850A0E81850BFF4F5AF5FEA027C24BF8F
:10081000B1E81850A0E8185044BF18C918C0BDE886
:1008200010405FEA827C24BF51F8043B40F8043B4F
:1008300008BF7047D20728BF31F8023B48BF11F804
:10084000012B28BF20F8023B48BF00F8012B70475E
:100850004FF000020429C0F0128010F0030C00F0E9
:100860001F80CCF1040CBCF1020F18BF00F8012B63
:10087000A8BF20F8022BA1EB0C0100F011B85FEA31
:10088000C17C24BF00F8012B00F8012B48BF00F801
:10089000012B7047007B00F0800070474FF0000292
:1008A00000B5134694469646203922BFA0E80C5066
:1008B000A0E80C50B1F12001BFF4F7AF090728BF41
:1008C000A0E80C5048BF0CC05DF804EB890028BFBD
:1008D00040F8042B08BF704748BF20F8022B11F0E6
:1008E000804F18BF00F8012B704700000048704788
:1008F000F45800207546FFF7F9FFAE46050069463B
:10090000534620F00700854618B020B5FFF7E8FCF5
:10091000BDE820404FF000064FF000074FF0000800
:100920004FF0000B21F00701AC46ACE8C009ACE881
:10093000C009ACE8C009ACE8C0098D467047044660
:10094000AFF300802046FFF76BFC21B1826842F0D4
:100950000102826003E0826822F001028260704737
:1009600010B504461248844208D10121401500F018
:10097000A1FB0021601500F09DFB17E00D488442AB
:1009800008D10121001500F095FB0021201500F091
:1009900091FB0BE00848844208D10121C80300F014
:1009A00089FB00214FF4004000F084FB10BD0000E3
:1009B0000024014000280140003C01400146002085
:1009C0008A6802F004020AB1012000E000207047AA
:1009D0000146C86C80B270470246002013680B4085
:1009E0000BB1012000E000207047014600208A681A
:1009F00002F008020AB1012000E000207047000068
:100A000030B502460020002350680F4C20400D797D
:100A10000C6844EA05242043506090680B4C204049
:100A2000D1E902542C434D7944EA450420439060B7
:100A3000D06A20F470000C7C641EE4B2234340EAC8
:100A40000350D06230BD0000FFFEF0FFFDF7F1FF64
:100A5000F0B504460D4600200021092D11DDE068A7
:100A6000A5F10A0606EB4607072606FA07F18843B2
:100A7000A5F10A0606EB460603FA06F10843E06014
:100A80000CE0206905EB4507072606FA07F18843C5
:100A900005EB450603FA06F108432061072A0FDA41
:100AA000606B561E06EB86071F2606FA07F1884381
:100AB000561E06EB860605FA06F10843606322E03F
:100AC0000D2A0FDA206BD61F06EB86071F2606FAC3
:100AD00007F18843D61F06EB860605FA06F10843A0
:100AE000206310E0E06AA2F10D0606EB86071F26E0
:100AF00006FA07F18843A2F10D0606EB860605FA11
:100B000006F10843E062F0BD816841F008018160B0
:100B1000704721B1826842F4A002826003E08268DB
:100B200022F4A00282607047816841F00401816074
:100B30007047000000B587B001214FF4017000F04C
:100B4000A9FA4FF4004000F089FA0620ADF804003D
:100B500000208DF8070001A9174800F0E5F81748B4
:100B6000FFF7FEFE002002908DF80C008DF80D00BE
:100B70004FF4602004900020059001208DF81800AB
:100B800002A90E48FFF73CFF01210C48FFF7DDFEEC
:100B90000A48FFF7B9FF00BF0848FFF726FF002803
:100BA000FAD10648FFF7C0FF00BF0448FFF706FF71
:100BB0000028FAD107B000BD000801400024014020
:100BC00000BFFEE710B5FFF7B5FF10BD1CB504462A
:100BD00004480023322204A1CDE90040074804F074
:100BE0004FF81CBD0002002073746172745F4348AB
:100BF00045434B5F7461736B00000000952B000848
:100C000070B5044605E01548456B05F0450000B198
:100C100000E0F8E700BF042000F074FC20B10420DD
:100C200000F06AFC032070BD012000F06BFC20B1D5
:100C3000012000F061FC0120F5E708480069A042AE
:100C400001D01020EFE740F2FF50044988630846C6
:100C5000406908210840C0B2E5E70000008001407B
:100C60007047000010B50121034800F031F9012060
:100C700000F054F810BD00000008014010B5042138
:100C8000074800F025F938B90648006808B901207E
:100C900000E0002003490860042000F03FF810BD88
:100CA000001801409481214210B50821074800F046
:100CB0000FF938B90648006808B9012000E00020A3
:100CC00003490860082000F029F810BD0018014011
:100CD0009401234210B510210C4800F0F9F880B9B6
:100CE0000B48006808B9012000E0002008490860AE
:100CF0000848D0F8940108B9012000E00020064916
:100D00000860102000F00AF810BD00000018014033
:100D1000948121420000234294012342014908604A
:100D200070470000140401402DE9F04102460025FF
:100D30000026002000230024002791F803C00CF0B7
:100D40000F0591F803C00CF0100CBCF1000F03D09C
:100D500091F802C04CEA050591F800C0BCF1000F03
:100D600031D0146800202BE04FF0010C0CFA00F396
:100D7000B1F800C00CEA03069E4220D183004FF078
:100D80000F0C0CFA03F7BC4305FA03FC4CEA04040D
:100D900091F803C0BCF1280F06D14FF0010C0CFAFA
:100DA00000FCC2F814C00AE091F803C0BCF1480F7F
:100DB00005D14FF0010C0CFA00FCC2F810C0401C29
:100DC0000828D1D31460B1F800C0BCF1FF0F34DDA6
:100DD000546800202EE000F1080C4FF0010808FADA
:100DE0000CF3B1F800C00CEA03069E4221D1830047
:100DF0004FF00F0C0CFA03F7BC4305FA03FC4CEA66
:100E0000040491F803C0BCF1280F05D100F1080CCF
:100E100008FA0CF8C2F8148091F803C0BCF1480F2E
:100E200007D100F1080C4FF0010808FA0CF8C2F8DD
:100E30001080401C0828CED35460BDE8F08100002B
:100E4000F0B50A46002300240021002500F00046EA
:100E5000B6F1004F02D11D4EF16901E01B4E7168E1
:100E6000C0F3034583B200F44016B6F5401F08D125
:100E700021F07061154E766826F07066134F7E6023
:100E800012E000F48016B6F5801F06D1032606FA9C
:100E900005F4A14341F0706106E0460D360103FA06
:100EA00006F6B14341F0706122B1460D360103FAF6
:100EB00006F6314300F00046B6F1004F02D1034E72
:100EC000F16101E0014E7160F0BD000000000140E1
:100ED0000246002093680B400BB1012000E0002087
:100EE0007047000010B50446072301222146094837
:100EF000FFF7AEFD01210748FFF70BFE00BF0221FF
:100F00000448FFF769FD0028F9D00248FFF760FDAB
:100F100010BD0000002401402DE9F04107460C46B9
:100F20000025002608E03846FFF7DCFF05440520D1
:100F300000F050FF701CC6B2A642F4DBB5FBF4F023
:100F400080B2BDE8F08100BFFEE70146CA1701EBA1
:100F500092729210A1EB820292B9642091FBF0F29E
:100F600000FB121050B94FF4C87091FBF0F200FB77
:100F7000121008B9012070470020FCE70120FAE7B1
:100F80000020F8E700BFFEE77047000070B50021C1
:100F900000230F22C47804B3154C246804F4E064E1
:100FA000C4F5E064210AC1F10403CA40447804FA9C
:100FB00003F184781440214309010E4C0678A155B1
:100FC000047804F01F050124AC4005786D11AD00D4
:100FD00005F1E025C5F8004109E0047804F01F059B
:100FE0000124AC40044D0678761145F8264070BDCA
:100FF0000CED00E000E400E080E100E00249014384
:10100000024A1160704700000000FA050CED00E094
:1010100010B5002140F60F6000F010FC10BD00007C
:101020001CB5044604480023322204A1CDE9004047
:10103000064803F025FE1CBD08020020737461728F
:10104000745F50574D5F7461736B0000C52B0008CF
:10105000014908627047000000000E42014600206E
:10106000034A506820F44040084350607047000035
:101070000010024029B1064AD2690243044BDA61EA
:1010800004E0034AD2698243014BDA6170470000F1
:101090000010024029B1064A92690243044B9A614A
:1010A00004E0034A92698243014B9A617047000051
:1010B0000010024029B1064AD2680243044BDA60AC
:1010C00004E0034AD2688243014BDA6070470000B3
:1010D0000010024030B500210022002400232D4DD5
:1010E0006D6805F00C0121B1042905D0082923D130
:1010F00005E0294D056022E0274D05601FE0254DE4
:101100006D6805F47012234D6D6805F48034022576
:1011100005EB92421CB9214D554305600BE01D4D76
:101120006D6805F400351DB11C4D5543056002E0A6
:10113000194D5543056002E0174D056000BF00BF23
:10114000144D6D6805F0F0010909154D6B5C0568DB
:10115000DD4045600F4D6D6805F4E061090A104DF2
:101160006B5C4568DD4085600A4D6D6805F4605133
:10117000C90A0B4D6B5C4568DD40C560054D6D6867
:1011800005F44041890B074D6B5CC568B5FBF3F571
:10119000056130BD0010024000127A0000093D00D8
:1011A0003600002046000020024909888143014A98
:1011B00011807047042800400348008840F0100068
:1011C0000149088070470000042800400348008857
:1011D0004FF6EF710840014908807047042800402D
:1011E00070B500260024002500F07AF8064638483D
:1011F000B6FBF0F437480088A0423CD035490C805B
:1012000040F2B27510E02846FFF79FFE40B1B4F5FA
:10121000B77F02D3A4F5B77404E0681C85B206E07A
:10122000A4F26D14681C85B2B4F5B67FEBD800BF8C
:1012300029488580002516E027498888FFF785FE24
:1012400030B1012D04D11D2C01D31D3C09E00CE06F
:101250002248405DA04203D82048405D241A00E0A7
:1012600003E0681C85B21C2CE6D200BF681C1A493A
:101270008871601CC8711648B6FBF0F100FB116460
:101280004FF46160B4FBF0F0134908704FF46160F3
:10129000B4FBF0F100FB11403C21B0FBF1F00E4932
:1012A00048704FF46160B4FBF0F100FB11403C2149
:1012B000B0FBF1F201FB1200074988700B46DA79A6
:1012C0009979988800F028F803490872002070BDC9
:1012D0008051010018000020100200203C5200083C
:1012E000002103480188001F008841EA0040704740
:1012F0001C28004001460020064A12880A40D0B24D
:10130000044A121F12880A4012B108B1012000E0FD
:101310000020704704280040F0B503460C461546EF
:10132000642093FBF0F0C6B2642093FBF0F700FB5F
:101330001730C1B2132E02DD01F16400C1B20846BC
:10134000CF1701EB977701EBA707BAB2072092FB03
:10135000F0F700FB172082B25719601EDFF82CC08F
:101360001CF80000384482B2CF1701EB9777BF100A
:10137000A1EB87071FB9032C01DA501E82B20720A8
:1013800092FBF0F700FB1720C0B2F0BD305200080E
:101390000EB50120FFF7AEFF08B1FFF721FF0220D5
:1013A000FFF7A8FFA0B10220FFF7FEFEFFF718FF2E
:1013B0000A48807809494978084A1278CDE900211D
:1013C00002900648C3798279818805A0FEF79CFFC8
:1013D0000520FFF7E9FE00F085F80EBD10020020A1
:1013E000416C61726D2054696D653A25642D2564E8
:1013F0002D25642025643A25643A25640A000000FE
:101400002DE9F05F06460F4690469946DDE90AABA6
:10141000002440F2B270864203DB40F6330086427D
:1014200002DD0120BDE8F09F40F2B2750AE02846D7
:10143000FFF78BFD10B12048044401E01F4804442D
:10144000681C85B2B542F2DB781EC7B2002510E0F9
:101450001B48405D40F2A321484304EBC0143046D2
:10146000FFF773FD18B1012D01D116480444681C23
:1014700085B2BD42ECDBA8F1010040F2A321484354
:1014800004EBC014C9EB4910C0EB092004EB0014B5
:10149000CAEB0A1004EB80045C4401214FF0C050F9
:1014A000FFF7E8FD0120FFF7D3FD204600F00CF820
:1014B00000F018F80020B5E70085E2018033E10173
:1014C0003C5200088051010000B50246FFF774FE4F
:1014D000100C03490880091D0A80FFF777FE00BD44
:1014E0001828004000BF0348008800F020000028B2
:1014F000F9D0704704280040014988637047000014
:101500000080014001460020034A526B0A400AB1A4
:10151000012000E0002070470080014010B500F07D
:1015200017F810BD0021094B02689A601A46D1686D
:101530006FF30A01D0E901231A43C3681A43036910
:101540001A431143014AD1607047000000800140F6
:1015500010B54948406B00F4807070B3474800787C
:10156000012814D10020464908600C204860402022
:1015700088600020C8604FF4806008610846FFF76B
:10158000D1FF0C20FFF73CFB3E49087002E0002031
:101590003C4908703848806B40F480703649886355
:1015A0000846C06B4CF23A3188433349C863012086
:1015B000354908703348007810BDFFE70220FFF777
:1015C000A1FF68B10220FFF797FF2B48C06B4CF2D8
:1015D0003A3188432849C86302202A490870EBE75A
:1015E0000820FFF78FFF68B10820FFF785FF22482A
:1015F000C06B4CF23A3188431F49C863042021492B
:101600000870D9E72020FFF77DFF68B12020FFF7A1
:1016100073FF1948C06B4CF23A3188431649C863CE
:10162000062018490870C7E71020FFF76BFF68B164
:101630001020FFF761FF1048C06B4CF23A3188432D
:101640000D49C86305200F490870B5E74FF40070D5
:10165000FFF758FF70B14FF40070FFF74DFF0648D9
:10166000C06B4CF23A3188430349C86307200549EF
:101670000870A1E700209FE70080014025000020BE
:1016800038020020260000202700002010B500F0BE
:1016900001F810BD0CB5002001900090334800689F
:1016A00040F480303149086000BF3048006800F4E1
:1016B000003000900198401C0190009818B90198E2
:1016C000B0F5A06FF1D12948006800F4003010B1E6
:1016D0000120009001E0002000900098012843D1F3
:1016E0002348006840F0100021490860084600685F
:1016F00020F0030008600846006840F0020008601F
:101700001A484068194948600846406848600846D9
:10171000406840F4806048600846406820F47C10CF
:1017200048600846406840F4E81048600846006891
:1017300040F08070086000BF0C48006800F0007046
:101740000028F9D00948406820F0030007494860A4
:101750000846406840F00200486000BF0348406807
:1017600000F00C000828F9D10CBD00000010024068
:1017700000200240042808D14FF0E021096941F01F
:1017800004014FF0E022116107E04FF0E021096908
:1017900021F004014FF0E0221161704710B503F011
:1017A0009FFA012801D002F045FF10BD10B5134883
:1017B000006840F00100114908600846406810497F
:1017C00008400E494860084600680E4908400B4929
:1017D00008600846006820F48020086008464068D9
:1017E00020F4FE0048604FF41F008860FFF74EFFB2
:1017F0004FF000600449086010BD00000010024076
:101800000000FFF8FFFFF6FE08ED00E010B5012133
:10181000084800F095F858B10121064800F075F825
:101820000548006808B9012000E00020024908606E
:1018300010BD0000000400409401234230B589B07F
:1018400005460C4601210220FFF714FC0121092066
:10185000FFF720FC01211A48FFF7F2FA2020ADF82B
:10186000200018208DF8230003208DF8220008A9FD
:101870001448FFF759FAADF81850ADF8144000209D
:10188000ADF81A00ADF8160005A90F4800F0D8F819
:101890007020ADF804000120ADF806000020ADF87E
:1018A0000C0001A9084800F065F80821064800F07E
:1018B000B3F80121044800F02BF809B030BD000056
:1018C00000081A00000C01400004004010B501217E
:1018D0000A4800F035F801280AD10949086980470B
:1018E0000021064800F0A9F86421044800F0A1F89E
:1018F0000121024800F009F810BD00000008004076
:1019000090000020CA4302827047CA430282704797
:1019100021B1028842F00102028004E002884FF601
:10192000FE731A40028070470146888C7047024659
:101930000020138A0B400BB1012000E0002070470B
:1019400030B50246002000230024158A05EA010371
:10195000958905EA010413B10CB1012000E00020D3
:1019600030BD1AB183890B43838102E083898B43A5
:101970008381704770B5002400220023058C4FF648
:10198000EF7635400584028C8388048B48F6FF751A
:101990002C404FF6FF452C400D884FF6FF7606EAA7
:1019A00005252C434FF6DF752A400D8906EA0515FB
:1019B0002A434D8806EA05152A43154DA84202D050
:1019C000144DA8421DD14FF67F752A404D894FF620
:1019D000FF7606EA05152A434FF6BF752A408D8823
:1019E00006EA05152A434FF6FF352B404FF2FF75E7
:1019F0002B408D8906EA85052B43CD8906EA8505AE
:101A00002B4383800483CD880587028470BD00004A
:101A1000002C0140003401400A460021018B4FF2A6
:101A2000FF7319404FF6FF7303EA02231943018342
:101A30007047818570470187704781847047000037
:101A4000002202881D4B98420ED01D4B98420BD0AD
:101A5000B0F1804F08D01B4B984205D01A4B9842EA
:101A600002D01A4B984204D14FF68F731A404B881C
:101A70001A43174B984207D0164B984204D04FF6A2
:101A8000FF431A40CB881A4302808B8883850B88DA
:101A900003850A4B98420BD0094B984208D00E4B55
:101AA000984205D00D4B984202D00D4B984201D17F
:101AB0000B7A03860123838270470000002C0140CB
:101AC000003401400004004000080040000C0040C9
:101AD000001000400014004000400140004401405C
:101AE000004801407FB505460C4601210420FFF760
:101AF000C1FAADF80850ADF804400020ADF80A0076
:101B0000ADF8060001A90D48FFF79AFF0122412117
:101B10000A48FFF726FF1E208DF8000003208DF8ED
:101B200001008DF8020001208DF803006846FFF7E0
:101B30002DFA01210148FFF7EBFE7FBD00080040B0
:101B400010B540F225511D4800F04AF810B31B486B
:101B500000F002F9C4B21A48008800F40040C8B985
:101B60001748008800F4804060B10A2C03D00020A0
:101B70001349088020E01248008840F400401049D2
:101B8000088019E00D2C06D10D48008840F48040F3
:101B90000B49088010E00A480088C0F30D0009498D
:101BA0000C5407480088401C0549088008460088F6
:101BB000C72801DD0020088010BD0000003801406A
:101BC00034000020E004002021B1828942F4005258
:101BD000828104E082894DF6FF731A40828170474A
:101BE00070B50246002400230025002040F66A1646
:101BF000B14200D100BFC1F3421501F01F0301261D
:101C000006FA03F3012D02D19689334006E0022D36
:101C100002D1168A334001E0968A33400C12012625
:101C200006FA04F41688344013B10CB1012000E028
:101C3000002070BDF0B503460024002600250020DA
:101C400040F66A17B94200D100BF1846C1F34214EA
:101C500001F01F06012707FA06F5012C01D10C300F
:101C600004E0022C01D1103000E014301AB10768F2
:101C70002F43076002E00768AF430760F0BD000034
:101C80002DE9F04786B005460E460024A24600BF67
:101C9000A1460027B08900B100BF2F462C8A4CF620
:101CA000FF700440F08804432C82AC894EF6F31098
:101CB0000440B08831890843718908430443AC81EA
:101CC000AC8A4FF6FF400440B0890443AC8201A8BF
:101CD000FFF700FA1F48874202D1DDF810A001E0AB
:101CE000DDF80CA0A88900F4004040B10AEBCA005E
:101CF00000EB0A1031684900B0FBF1F807E00AEB8D
:101D0000CA0000EB0A1031688900B0FBF1F86420CA
:101D1000B8FBF0F004012009642101FB1089A889B7
:101D200000F4004040B1322000EBC900B0FBF1F0FC
:101D300000F00700044308E0322000EB09106421A2
:101D4000B0FBF1F000F00F0004432C8106B0BDE8B9
:101D5000F08700000038014001468888C0F3080081
:101D6000704700BFFEE730380A2801D201207047D3
:101D70000020704700BF704710B50420FFF7FAFC41
:101D8000104800681049B0FBF1F0104908700D4888
:101D900000680D49B0FBF1F44FF47A704443012020
:101DA0000B4908804FF0E020006940F002004FF03E
:101DB000E021086108464461006940F001000861C3
:101DC00010BD00000400002040420F002C00002045
:101DD0002E00002070B5044602F082FF012811D0C9
:101DE0000C480088844206DB0A48008894FBF0F522
:101DF000284602F0A1F90748008894FBF0F100FBA7
:101E0000114084B24FF47A7104FB01F000F004F841
:101E100070BD00002E00002070B5034600224FF078
:101E2000E02675690D4E367803FB06F44FF0E02688
:101E3000B16910E04FF0E026B06988420BD08842CB
:101E400002D20E1A324402E02E1A0E4432440146E7
:101E5000A24200D300E0EDE700BF70BD2C000020DF
:101E600000BF054A128802F04002002AF9D0C2B22F
:101E7000014B1B1D1A8070470038014010B54FF40C
:101E8000A060FFF7BBF84FF44070FFF7B7F8FFF71B
:101E900073FF4FF4E13000F0BBFE10BD1CB5FFF73F
:101EA000EDFF0748012100238022CDE9001005A1A4
:101EB000074802F0E5FE02F069FA00201CBD0000B0
:101EC0000000002073746172745F7461736B0000B2
:101ED000E92B00082DE9F04105460E461C4807682D
:101EE0001C480068001D01F05DFF50B919480068EA
:101EF00090F82C1001208840174909688143164842
:101F00000160681C38B936B112480168091D1348D0
:101F100001F086FF1AE07C190E4800684460BC425C
:101F200007D20C480168091D0D48006801F05EFFEA
:101F30000CE008480168091D0A48006801F056FFD6
:101F400009480068844201D207480460BDE8F08176
:101F500098010020840100209C010020B808002086
:101F60008C01002088010020B401002010B5044637
:101F700001F062FF24480068401C234908602348A0
:101F8000006840B9214804600846006801280DD166
:101F900000F0E6F90AE01E48006838B91B480068FE
:101FA000C06AE16A884201D818480460194800688C
:101FB000401C1849086008460068606494F82C10BA
:101FC0000120884014490968084313490860E16A00
:101FD00001EB8101114A02EB8100211D01F020FF7C
:101FE00001F06EFF0A48006868B108480068C06ADE
:101FF000E16A884207D24FF0805009490860BFF378
:102000004F8FBFF36F8F10BD94010020840100201B
:10201000A0010020B00100209C010020E805002064
:1020200004ED00E010B501F007FF10480068D0B9DA
:102030000F4801F0CBFE0F4801F0C8FE0C480E49D6
:1020400008600C480D49086000221021052002F0AC
:102050000BFB064908600846006820B108A1034848
:10206000006802F02DF801F02BFF10BDC801002020
:10207000CC080020E0080020C0010020C40100209E
:10208000546D72510000000010B516E001F0D4FE4E
:102090000C48C068C468201D01F084FE0A4800682E
:1020A000401E0949086009480068401E0749086049
:1020B00001F006FF204600F05FF8044800680028A1
:1020C000E4D110BDA408002094010020900100205C
:1020D00070B504460D46206C70B1216CE068014477
:1020E000E160D4E90210884201D32168E16028460A
:1020F000226CE168FEF790FA70BD2DE9F0410446CC
:102100000F4615464FF00008A66B206C48B92068B2
:1021100000282CD1A06802F0A9FE80460020A06013
:1021200025E07DB93946226C6068FEF775FA216CAE
:10213000606808446060D4E90101884217D32068D0
:10214000606014E03946226CE068FEF765FA216CA5
:10215000E068411AE1602168E068884203D2216C9E
:10216000A068411AE160022D01D106B1761E701CF3
:10217000A0634046BDE8F08110B50446206B01F035
:10218000D7FE204601F0D4FE10BD00000146084AEB
:10219000126812680AB9012200E000220A600A6887
:1021A00022B9034A1268D268106800E00020704724
:1021B000C001002030B54FF4A043174800F00704D9
:1021C0002CB1C01D20F00700134C041B1B1B024642
:1021D000124C22600024114D6C60D018083820F099
:1021E00007000F4C206000240D4D2D686C600C4DD5
:1021F0002D682C601146441A4C60094C24680C6010
:10220000084D4C682C60084D4C682C604FF0004421
:10221000064D2C6030BD0000F4080020D4010020E1
:10222000DC010020E4010020E0010020F00100209A
:1022300000BFFFF729FF064800680128F9D94FF0D1
:10224000805004490860BFF34F8FBFF36F8FF0E7F2
:10225000E805002004ED00E02DE9F04106460D46BA
:1022600017469846069C0DB9246000E02760E66397
:1022700025640121204602F02FFA84F850800020C6
:10228000A064BDE8F08100002DE9F05F82460E46B3
:1022900090469B460A9F0C9C4FEA8801A522206B22
:1022A000FEF7FFF9A8F10100216B01EB800929F08D
:1022B000070909F0070008B9012000E0002028B94B
:1022C0004FF459721DA122A0FEF71EF886B1002519
:1022D00007E0715D04F134004155705D00B902E022
:1022E0006D1C102DF5D300BF00214320015502E0E5
:1022F000002084F83400202F00D31F27E762E76412
:1023000000202065201D01F06EFD04F1180001F091
:102310006AFD2461C7F12000A0616462002060654D
:1023200084F858005A465146484600F01DFC20608B
:102330000B9808B10B980460BDE8F09F2E2E5C4608
:1023400052454552544F535C7461736B732E630056
:102350004572726F723A25732C25640D0A000000D5
:1023600010B5002407E004EB84010F4A02EB810062
:1023700001F02CFD641C202CF5D30C4801F026FD47
:102380000B4801F023FD0B4801F020FD0A4801F045
:102390001DFD0A4801F01AFD044809490860044877
:1023A0000849086010BD0000E8050020680800200A
:1023B0007C08002090080020A4080020B808002015
:1023C000880100208C01002010B50146164800E06D
:1023D000006803688B42FBD30246436813448B4278
:1023E00004D143684C682344436001460A464B6865
:1023F00013440468A34211D10C4C03682468A3421F
:1024000008D04B680468646823444B6003681B6809
:102410000B6005E0054B1B680B6001E003680B6077
:10242000884200D0016010BDD4010020DC010020F2
:102430002DE9F04104460D4616461F464FF00008B0
:1024400065602461B5420CD8F01BA169884202D3B3
:102450004FF0010811E0211D0948006801F0C6FC99
:102460000BE0BE4204D2BD4202D34FF0010804E0AB
:10247000211D0448006801F0B9FC4046BDE8F08128
:10248000C4010020C001002070B5054601F0D4FC55
:10249000A86B08B9012400E0002401F011FD2046DA
:1024A00070BD70B5054601F0C7FCA86BE96B8842AA
:1024B00001D1012400E0002401F002FD204670BD9E
:1024C000F1B50098846C00262CB940F649321AA167
:1024D0001EA0FDF719FFA06BE16B884201D201201D
:1024E00000E0002028B940F64A3213A117A0FDF7FA
:1024F0000BFFA06BE16B88421BD294F94550002280
:1025000069462046FFF7F9FD0646681C60B9606A17
:1025100008B9012000E0002050B904F1240002F0C5
:1025200011FD28B1012603E0681C40B284F8450083
:1025300000BF3046F8BD00002E2E5C465245455285
:10254000544F535C71756575652E63004572726FEB
:10255000723A25732C25640D0A000000F8B5054673
:102560000F4617480068C068C468201D01F01AFCB7
:1025700094F8280000F00400C0B1A06941192B466E
:102580003A462046FFF754FFB0B1002003462A46E2
:1025900001460090204602F0F9FD06462EB940F2B1
:1025A000112208A10DA0FDF7AFFE05E094F8280068
:1025B00020F0010084F828002046216A8847F8BDF1
:1025C000C00100202E2E5C4652454552544F535CAC
:1025D00074696D6572732E63000000004572726F3E
:1025E000723A25732C25640D0A000000F0B587B0FF
:1025F00090E0039800280CDA04AE2EB940F2F122E4
:102600004AA150A0FDF780FED6E90020B1689047AE
:1026100000BF039800287DDB059C606908B9012094
:1026200000E0002010B9201D01F0BCFB02A800F062
:10263000E7F8054603980A286AD2DFE800F00905A2
:1026400007343C590608353D00BF00BF00BF00BF3E
:1026500094F8280040F0010084F828000498A2694A
:10266000811803462A462046FFF7E2FED0B12046F5
:10267000216A884794F8280000F0040090B10020F7
:1026800000900498A169421800231946204602F0E0
:102690007DFD07462FB94FF44B7224A129A0FDF709
:1026A00033FE00BF35E000BF94F8280020F00100A1
:1026B00084F828002DE000BF94F8280040F00100C5
:1026C00084F828000498A061A06908B1012000E006
:1026D000002028B94FF4517214A11AA0FDF714FE7E
:1026E000A06941192B462A462046FFF7A1FE10E0BB
:1026F00094F8280000F0020018B9204601F018FCF8
:1027000005E094F8280020F0010084F8280000E09B
:1027100000BF00BF002203A90E48006802F0AAF91A
:1027200000287FF466AF07B0F0BD00002E2E5C4697
:1027300052454552544F535C74696D6572732E63F4
:10274000000000004572726F723A25732C25640DEB
:102750000A000000C8010020F8B505460C4601F04B
:102760006BFE684600F04CF80646009820BB44B962
:10277000B54206D802F040FC31462846FFF7EEFE8F
:102780001CE03CB10E480068006808B9012000E078
:1027900000200446A91B22460A48006801F0A6FC56
:1027A00002F02AFC50B94FF0805007490860BFF38F
:1027B0004F8FBFF36F8F01E002F01EFCF8BD0000E9
:1027C000C4010020C801002004ED00E00A490968A6
:1027D000096809B9012100E0002121B14FF0FF3162
:1027E000064A116006E004490968C968C868034AD6
:1027F000416811607047000088010020B40100208A
:1028000070B5044602F07CFA054607480068854228
:1028100004D200F00BF80120206001E000202060CD
:1028200001480560284670BDD00100202DE9F8431D
:102830002FE022480068C068056820480068C0682A
:10284000C468201D01F0AEFA2046216A884794F83A
:10285000280000F00400E0B1A0694619AE4207D993
:1028600066602461211D1548006801F0BFFA10E080
:10287000002003462A4601460090204602F086FCCE
:1028800007462FB940F29D320DA113A0FDF73CFD84
:1028900000BF0A480068006808B9012000E0002075
:1028A0000028C6D00548D0F800800F4800680349CA
:1028B00008600D48C0F80080BDE8F883C001002022
:1028C0002E2E5C4652454552544F535C74696D65DB
:1028D00072732E63000000004572726F723A2573A6
:1028E0002C25640D0A000000C40100200B4800687C
:1028F000401C08B9012000E0002020B9CA2208A12C
:1029000012A0FDF701FD00BF502080F31188BFF336
:102910004F8FBFF36F8F00BF00BFFEE7F4010020B1
:102920002E2E5C4652454552544F535C706F727464
:1029300061626C655C525644535C41524D5F434D3D
:10294000335C706F72742E63000000004572726F0A
:10295000723A25732C25640D0A00000008B500BFEB
:102960006846FFF713FC044620460099FFF7F4FE83
:10297000FFF73CFEF4E770B5044601F05DFA94F908
:10298000455019E0A06C30B12046FFF799FD88B1A1
:1029900001F09EFC0EE0606A08B9012000E0002012
:1029A00038B904F1240002F0CDFA18B101F090FC1E
:1029B00000E003E0681E45B2002DE3DC00BFFF200D
:1029C00084F8450001F07CFA01F036FA94F944509D
:1029D00010E0206908B9012000E0002048B904F1A6
:1029E000100002F0AFFA08B101F072FC681E45B2A7
:1029F00000E001E0002DECDC00BFFF2084F8440083
:102A000001F05EFA70BD00002DE9F04104464FF080
:102A1000000801F011FD4048006808B9FFF7CAFB43
:102A20003E4800682040002864D1A4B1083404F076
:102A3000070080B104F00700C0F10800044404F06E
:102A4000070008B9012000E0002020B9972234A136
:102A50003DA0FDF759FC002C4CD03F480068844253
:102A600048D83E4E3046056801E02E462D6868681D
:102A7000A04202D228680028F7D127480068854282
:102A800038D0306800F10808286830606868001B9A
:102A9000102813D92F1907F0070008B9012000E00A
:102AA000002020B9C4221EA127A0FDF72DFC6868D4
:102AB000001B78606C603846FFF786FC2649686822
:102AC0000968081A2449086008460068244909680A
:102AD000884203D220480068214908600F4968688D
:102AE000096808436860002028601E480068401C90
:102AF0001C49086002F080FA08F0070008B90120BC
:102B000000E0002028B940F2051205A10EA0FDF753
:102B1000FBFB4046BDE8F081DC010020F001002015
:102B20002E2E5C4652454552544F535C706F727462
:102B300061626C655C4D656D4D616E675C68656179
:102B4000705F342E630000004572726F723A257315
:102B50002C25640D0A000000E0010020D4010020B3
:102B6000E4010020E8010020001F4FF080730360A3
:102B7000001F21F001030360001F034B03601438A2
:102B80000260203870470000ED2800080146086800
:102B900070470000FEF716F80FE00A210120FEF74B
:102BA000BBF9064908800A210220FEF7B5F904495D
:102BB000088040F2E73001F0BFFAEEE7040200209F
:102BC00006020020FEF724FA08E0054801880548BF
:102BD000FEF731FF40F2E73001F0AEFAF5E7000012
:102BE0000C0200200004004010B5044601F024F956
:102BF0000520FDF7EBFF0620FEF712FA03480068F8
:102C000001F0D4FA01F05CF910BD000000000020D2
:102C100010B586B00446012144F20400FEF73AFAEA
:102C20004FF40070ADF8140003208DF81600182042
:102C30008DF8170005A91C48FEF776F84FF4806060
:102C4000ADF8140004208DF8170005A91648FEF70A
:102C50006BF825208DF8000003208DF801008DF819
:102C6000020001208DF803006846FEF78FF90194F9
:102C70000020ADF80800ADF80A00ADF80C00ADF882
:102C800010000C20ADF80E0001A90848FEF7F8FF6F
:102C9000012240F225510548FEF7CCFF01210348EF
:102CA000FEF792FF06B010BD000801400038014059
:102CB00030B595B0054613AB12AA09A9284600F015
:102CC00039FA044614B1204615B030BD00201490E6
:102CD00026E0224909689DF8502001EBC20113ABA0
:102CE00011AA486801A900F025FA04460CB1204653
:102CF000EAE709A901A800F0BBFC60B99DF844000F
:102D00009DF84810884201DD0220DDE79DF8500063
:102D1000124988750AE09DF85000401CC0B214901A
:102D20000E48007D9DF850108842D2DC00BF0B4851
:102D3000007D9DF85010884201D10420C4E714A9F9
:102D4000284600F0D7FA04460CB12046BCE79DF8AF
:102D50005000024948750020B6E7000090000020AE
:102D60002DE9F0419AB09C48847D007DA04202DCB0
:102D70001AB0BDE8F0819849096801EBC40106ABBF
:102D800007AA486808A900F0D5F908A993A0FDF79B
:102D9000BBFA002644E09048008B0121B140084076
:102DA000D8B122218FA0FDF7AFFA304600F028FB02
:102DB00089492431471839468BA0FDF7A5FA22210D
:102DC00088A0FDF7A1FA304600F01AFB82492431B1
:102DD000084410A941F8260018E0304600F010FB26
:102DE0007D492431085810A941F826007A48C07D51
:102DF00030B910A850F826107CA0FDF785FA05E040
:102E000010A850F826107AA0FDF77EFA9DF81C0055
:102E1000401EB04202D078A0FDF776FA701CC6B210
:102E20009DF81C008642B6DB74A0FDF76DFA00F039
:102E300039FB6948407D0B280DD2DFE800F0060D14
:102E4000151E27323F4E5F7287006349096851F8AB
:102E500034008047054690E05F4A126852F834100B
:102E600010988847054688E05B4B1B6853F8342070
:102E7000DDE91001904705467FE0574F3F6857F85E
:102E8000343010A807C89847054676E0DFF848C1F7
:102E9000DCF800C05CF8347010A80FC8B8470546CD
:102EA0006BE01498DFF830C10090DCF800C05CF8EB
:102EB000347010A80FC8B84705465EE0DDE914017C
:102EC000DFF814C1CDE90001DCF800C05CF8347013
:102ED00010A80FC8B84705464FE0DDE91412169850
:102EE000DFF8F4C0CDE900120290DCF800C05CF815
:102EF000347010A80FC8B84705463EE0DDE914233A
:102F0000DDE91610DFF8D0C0CDE90023CDE90210CD
:102F1000DCF800C05CF8347010A80FC8B84705464C
:102F20002BE0DDE91523DDE91710CDE90123CDE91B
:102F300003101498DFF8A0C00090DCF800C05CF823
:102F4000347010A80FC8B847054616E0DDE916230F
:102F5000DDE91810CDE90223CDE90410DDE9140103
:102F6000DFF874C0CDE90001DCF800C05CF8347013
:102F700010A80FC8B847054600BF00BF00F050FAC0
:102F80009DF8180001280CD11348C07D20B92946AE
:102F90001BA0FDF7B9F907E029461BA0FDF7B4F91E
:102FA00002E018A0FDF7B0F90B4890F8EC0088B1EA
:102FB0000948D0F8F0000A21B0FBF1F201FB12073A
:102FC0000548D0F8F000B0FBF1F83A46414611A0B0
:102FD000FDF79AF900BFCBE6900000200D0A25739B
:102FE000280000002563000025730000256C750093
:102FF00030582558000000002C0000002900000077
:103000003D256C753B0D0A003D305825583B0D0A97
:103010000000000046756E6374696F6E2052756E15
:103020002054696D653A25642E2531646D730D0A4F
:1030300000000000F0B503461546002000220026DF
:10304000002455E01F782C2F01D104B901221F78EC
:10305000292F01D01F780FB904B94AE0002E34D1CE
:103060001F78302F02DB1F78392F11DD1F78612F79
:1030700002DB1F78662F0BDD1F78412F02DB1F78E4
:10308000462F05DD1F78582F02D01F78782F0CD1DE
:1030900002B12EE01F78612F03DB1F78203F0F70F5
:1030A00001E01F780F70491C1FE01F78222F04D108
:1030B00002B11EE00126012417E01F78202F14D052
:1030C0001F782C2F11D0FF2613E01F78222F00D15C
:1030D000002402B10DE044B11F785C2F02D15B1CCB
:1030E000471CF8B21F780F70491C471CF8B25B1CD4
:1030F000A8E700BF00270F702E70F0BD10B5044682
:10310000002010700BE020780870641C491C1078B7
:10311000401C10701078984201DB012010BD20780F
:10312000202802D020780028EDD10020087000BFB0
:10313000F4E700002DE9FF4F85B08046894600275F
:10314000002004900390012002904FF0000B002516
:1031500044461DE02078202816D005F07F00052881
:1031600012DA0DB945F0800505F07F00042803D17F
:1031700020782A2800D00EE0207805F07F010DF895
:103180000100681CC5B202E0852D00D103E0641C7B
:1031900020780028DED100BF8DB1002005F07F012E
:1031A0000DF8010051A1684600F062FA18B900213B
:1031B0000898017002E001210898017000254FF085
:1031C000000A444614E0641C0AF1010000F0FF0A02
:1031D0002078202802D020782A2809D1204600F023
:1031E000D7F90646282E03D02A2E01D0CDF810A0FC
:1031F0002078282802D020780028E4D1444604987A
:1032000010B10498401C04444FF0000A002654E01A
:10321000207810B94FF0010A50E02078282803D117
:1032200016B9781CC7B213E02078292808D13EB916
:1032300017B1781EC7B201E04FF0010A47B93DE06F
:103240002078222804D10EB9012000E00020064693
:1032500047B9207820282FD0207889F8000009F17C
:10326000010929E020782C2804D101200290681C53
:10327000C5B214E02078202811D0207828280ED05C
:103280004DB9BBF1050F06DA20780DF80B000BF1F4
:10329000010000F0FF0B0298401CC0B20290012F09
:1032A0000AD10298022807D10298401CC0B20290AD
:1032B0000398401CC0B20390641CA9E700BF0398A8
:1032C000012809D100200DF80B0008A1684600F084
:1032D000CFF908B9002003900799039808700020DF
:1032E00089F80000504609B0BDE8F08F766F696438
:1032F000000000002DE9F043B5B005460F4600245C
:10330000002604E000213D488155701CC6B20A2EFB
:10331000F8DB06E06D1C287818B9012035B0BDE84F
:10332000F08328782828F5D16D1C61E034AA69461D
:103330002846FFF77FFE064635449DF8D00020B1B1
:10334000012827D0FF284CD149E09DF8000000B3A8
:1033500033A9684600F027F906460EB10220DDE7E2
:10336000204600F04DF825490A31339A0A50A1F160
:103370002400008B0121A140884320491A39088389
:1033800004211E480155601CC4B20A2C01DD032033
:10339000C4E726E0684600F087F9401C00F0FF080B
:1033A000204600F02DF815490A3100EB0109494685
:1033B000684600F06EF911481A38018B0120A040D0
:1033C000014388B20D491A3908830C4800F804807B
:1033D000601CC4B20A2C01DD03209FE701E002203B
:1033E0009CE700BF2878292801D0287800B900E0A0
:1033F0009CE700BF3C70002090E70000AA0000207E
:1034000002460020002105E0044B5B5C0344D8B277
:103410004B1CD9B29142F7DB70470000AA00002094
:1034200010B501210D48FEF782FA012808D10C4899
:10343000D0F8F0004FF6FF7108440949C1F8F000D8
:103440000648FEF771FA0649D1F8F010084404491D
:10345000C1F8F0000846D0F8F00010BD00080040A8
:103460009000002010B5044604EBC40000EB0410EB
:103470000122C2EB800081B24FF47A70FEF732FB7A
:1034800001200149C87510BD9000002010B502460A
:10349000012000E050430B00A1F10104E1B2F9D199
:1034A00010BD000010B501210848FEF72BFA4FF6B9
:1034B000FF710648FEF7BDFA00210448FEF7BDFA89
:1034C00000200349C1F8F00010BD000000080040D2
:1034D0009000002070B51D48008800F400400028CE
:1034E00033D01A4805780020194948551948816891
:1034F0001748884704461CB91649C868804721E028
:10350000134800F0DDF80546012D00D02C46CCB163
:10351000012C06D0022C08D0032C0AD0042C10D188
:103520000BE00DA0FCF7F0FE0BE00EA0FCF7ECFEAC
:1035300007E00FA0FCF7E8FE03E010A0FCF7E4FEB4
:1035400000BF00BF00200149088070BD340000208A
:10355000E004002090000020BAAFCAFDB4EDCEF325
:10356000210D0A00B2CECAFDB4EDCEF3210D0A0042
:10357000B2CECAFDCCABB6E0210D0A00CEB4D5D296
:10358000B5BDC6A5C5E4B5C4BAAFCAFD210D0A00D4
:103590000146491C00E0491C0878202801D1002977
:1035A000F9D1087870472DE9F04307460E4600250B
:1035B0004FF00A083C46002030601FE02078392890
:1035C00002DC207830280ADA2078462802DC2078CD
:1035D000412804DA2078582809D1012D07D1207814
:1035E000412801DB4FF01008681CC5B205E02078C7
:1035F00000B904E00120BDE8F083641CDEE700BFF1
:103600003C46B8F1100F0FD1032D01DA0220F2E78A
:103610002078302806D16078582803D1A41CA81E31
:10362000C5B204E00320E6E70DB90420E3E71BE0A0
:103630000DB1681EC5B22078392806DC2078302804
:1036400003DB2078A0F1300902E02078A0F13709EF
:1036500029464046FFF71AFF316809FB0010306029
:10366000641C207800B900E0E2E700BF0020C2E758
:1036700002460AE010780B78984201D0012070478A
:10368000107800B902E0521C491CF3E700BF00208B
:10369000F5E706E002780A70027802B902E0401C01
:1036A000491CF7E700BF70470146002005E00A7893
:1036B00002B903E0421CD0B2491CF8E700BF7047D2
:1036C00010B58CB004461E230BAA03A92046FFF7B1
:1036D00015FD0090009810B101200CB010BD9DF8B0
:1036E0002C00044400200B900EE040489DF82C2054
:1036F00050F8221003A8FFF7BBFF00B908E09DF8BF
:103700002C00401CC0B20B909DF82C000728ECD375
:1037100000BF9DF82C00072863D2DFE800F0040505
:103720003C5E6564630000BF31A0FCF7EDFD31A095
:10373000FCF7EAFD3FA0FCF7E7FD4EA0FCF7E4FD37
:103740005CA0FCF7E1FD6BA0FCF7DEFD79A0FCF7C7
:10375000DBFD86A0FCF7D8FD8BA0FCF7D5FD90A083
:10376000FCF7D2FD94A0FCF7CFFD99A0FCF7CCFDAF
:103770009EA0FCF7C9FDA4A0FCF7C6FDB0A0FCF715
:10378000C3FDBDA0FCF7C0FDC8A0FCF7BDFDD4A0E3
:10379000FCF7BAFD9AE216A0FCF7B6FDE0A0FCF734
:1037A000B3FD00200B900EE0ED4800689DF82C2042
:1037B00000EBC2004168EBA0FCF7A6FD9DF82C00D1
:1037C000401CC0B20B90E648007D9DF82C1088424A
:1037D000EADC07A0FCF798FD78E205A0FCF794FD71
:1037E000C4E171E245E219E2ECE100004C00002086
:1037F0000D0A00002D2D2D2D2D2D2D2D2D2D2D2D96
:103800002D2D2D2D2D2D2D2D2D2D2D2D55534D4166
:1038100052542056332E312D2D2D2D2D2D2D2D2D65
:103820002D2D2D2D2D2D2D2D2D2D2D2D2D2D2D20D5
:103830000D0A00002020202055534D415254CAC784
:10384000D3C9414C49454E54454BBFAAB7A2B5C454
:10385000D2BBB8F6C1E9C7C9B5C4B4AEBFDAB5F7D3
:10386000CAD4BBA5BDBBD7E9BCFE2CCDA8B9FD20F1
:103870000D0A0000CBFC2CC4E3BFC9D2D4CDA8B93B
:10388000FDB4AEBFDAD6FACAD6B5F7D3C3B3CCD03F
:10389000F2C0EFC3E6B5C4C8CEBACEBAAFCAFD2CEB
:1038A000B2A2D6B4D0D02ED2F2B4CB2CC4E3BFC9CE
:1038B0000D0A0000D2D4CBE6D2E2B8FCB8C4BAAF4D
:1038C000CAFDB5C4CAE4C8EBB2CECAFD28D6A7B3B8
:1038D000D6CAFDD7D62831302F3136BDF8D6C62905
:1038E000A1A2D7D6B7FBB4AEA1A2BAAFCAFDC8EBAE
:1038F0000D0A0000BFDAB5D8D6B7B5C8D7F7CEAA3B
:10390000B2CECAFD292CB5A5B8F6BAAFCAFDD7EE1E
:10391000B6E0D6A7B3D63130B8F6CAE4C8EBB2CE1B
:10392000CAFD2CB2A2D6A7B3D6BAAFCAFDB7B5208E
:103930000D0A0000BBD8D6B5CFD4CABE2ED0C2D493
:10394000F6B2CECAFDCFD4CABEBDF8D6C6C9E8D637
:10395000C3B9A6C4DC2CD0C2D4F6BDF8D6C6D7AA4B
:10396000BBBBB9A6C4DC2E0D0A000000BCBCCAF566
:10397000D6A7B3D63A7777772E6F70656E65647683
:103980002E636F6D0D0A000055534D415254D3D034
:1039900037B8F6CFB5CDB3C3FCC1EE3A0D0A00007F
:1039A0003F3A202020202020BBF1C8A1B0EFD6FA5A
:1039B000D0C5CFA20D0A000068656C703A202020A7
:1039C000BBF1C8A1B0EFD6FAD0C5CFA20D0A000056
:1039D0006C6973743A202020BFC9D3C3B5C4BAAF91
:1039E000CAFDC1D0B1ED0D0A0A00000069643A2099
:1039F00020202020BFC9D3C3BAAFCAFDB5C44944F3
:103A0000C1D0B1ED0D0A0A006865783A2020202067
:103A1000B2CECAFD3136BDF8D6C6CFD4CABE2CBA96
:103A2000F3B8FABFD5B8F12BCAFDD7D6BCB4D6B41B
:103A3000D0D0BDF8D6C6D7AABBBB0D0A0A0000007D
:103A40006465633A20202020B2CECAFD3130BDF833
:103A5000D6C6CFD4CABE2CBAF3B8FABFD5B8F12BAC
:103A6000CAFDD7D6BCB4D6B4D0D0BDF8D6C6D7AA76
:103A7000BBBB0D0A0A00000072756E74696D653A71
:103A8000312CBFAAC6F4BAAFCAFDD4CBD0D0BCC6C5
:103A9000CAB13B302CB9D8B1D5BAAFCAFDD4CBD05E
:103AA000D0BCC6CAB13B0D0A0A000000C7EBB0B4D7
:103AB000D5D5B3CCD0F2B1E0D0B4B8F1CABDCAE428
:103AC000C8EBBAAFCAFDC3FBBCB0B2CECAFDB2A24E
:103AD000D2D4BBD8B3B5BCFCBDE1CAF82E0D0A00E8
:103AE0002D2D2D2D2D2D2D2D2D2D2D2D2D2D2D2D06
:103AF0002D2D2D2D2D2D2D2D2D2D414C49454E5447
:103B0000454B2D2D2D2D2D2D2D2D2D2D2D2D2D2DAF
:103B10002D2D2D2D2D2D2D2D2D2D2D200D0A00007F
:103B20002D2D2D2D2D2D2D2D2D2D2D2D2D2D2D2DC5
:103B30002D2D2D2D2D2D2D2D2DBAAFCAFDC7E5B55F
:103B4000A52D2D2D2D2D2D2D2D2D2D2D2D2D2D2D2D
:103B50002D2D2D2D2D2D2D2D2D2D2D2D200D0A0012
:103B60009000002025730D0A0000000059A0FCF70A
:103B7000CBFB00200B901AE0664909689DF82C20C9
:103B800001EBC20101AB02AA486803A9FFF7D2FA10
:103B9000604800689DF82C1050F8312003A95EA001
:103BA000FCF7B2FB9DF82C00401CC0B20B905948AA
:103BB000007D9DF82C108842DEDCAFF2CC30FCF7A3
:103BC000A3FB83E0AFF2D830FCF79EFB0BAA03A95E
:103BD0002046FFF72FFA9DF82C00C8B9694603A8C4
:103BE000FFF7E1FC0B909DF82C0020B94FA0009945
:103BF000FCF78AFB0EE09DF82C00042801D002207F
:103C00006BE54DA0FCF780FB01204249C87501E03F
:103C1000022062E547A0FCF777FB57E045A0FCF7E0
:103C200073FB0BAA03A92046FFF704FA9DF82C00AA
:103C3000C8B9694603A8FFF7B6FC0B909DF82C00A5
:103C400020B942A00099FCF75FFB0EE09DF82C0024
:103C5000042801D0022040E53FA0FCF755FB0020DE
:103C60002C49C87501E0022037E532A0FCF74CFB77
:103C70002CE030A0FCF748FB0BAA03A92046FFF775
:103C8000D9F99DF82C00C8B9694603A8FFF78BFC49
:103C90000B909DF82C0078B91E49009881F8EC0033
:103CA000084690F8EC0018B130A0FCF72DFB07E0B7
:103CB00035A0FCF729FB03E002200EE502200CE50D
:103CC0001CA0FCF721FB01E0012006E500BF00205D
:103CD00003E500002D2D2D2D2D2D2D2D2D2D2D2DE0
:103CE0002D2D2D2D2D2D2D2D2D2D2D2D2DBAAFCA58
:103CF000FD204944202D2D2D2D2D2D2D2D2D2D2D0B
:103D00002D2D2D2D2D2D2D2D2D2D2D2D2D2D2D2DE3
:103D1000200D0A009000002025732069642069733B
:103D20003A0D0A3058253038580D0A004845583A9F
:103D3000305825580D0A00003136BDF8D6C6B2CE2F
:103D4000CAFDCFD4CABE210D0A0000004445433A43
:103D5000256C750D0A0000003130BDF8D6C6B2CE14
:103D6000CAFDCFD4CABE210D0A00000052756E20D4
:103D700054696D652043616C63756C6174696F6E25
:103D8000204F4E0D0A00000052756E2054696D657B
:103D90002043616C63756C6174696F6E204F464699
:103DA0000D0A000001460A69D1E901309860D1E9A5
:103DB000010358605068884201D188685060002033
:103DC00008611068401E10601068704700F108011B
:103DD00041604FF0FF31816000F10801C160016175
:103DE00000210160704700210161704710B5024653
:103DF0000B685C1C0CB9106907E002F1080000E0D8
:103E00004068446824689C42FAD944684C604C6815
:103E1000A160886041600A611468641C146010BD70
:103E200042684A6093688B6093685960916008614A
:103E300003685B1C0360704710B500BF502080F31F
:103E40001188BFF34F8FBFF36F8F00BF0B4800681F
:103E5000401C0A4908600846006801280DD108483E
:103E60000068C0B208B9012000E0002028B94FF472
:103E7000B37204A10EA0FCF747FA10BDF4010020B4
:103E800004ED00E02E2E5C4652454552544F535CE3
:103E9000706F727461626C655C525644535C41523F
:103EA0004D5F434D335C706F72742E6300000000F1
:103EB0004572726F723A25732C25640D0A0000005A
:103EC00010B50B48006828B940F26D1209A114A082
:103ED000FCF71AFA06480068401E054908600846C3
:103EE000006820B9002080F3118800BF00BF10BD1A
:103EF000F40100202E2E5C4652454552544F535C2F
:103F0000706F727461626C655C525644535C4152CE
:103F10004D5F434D335C706F72742E630000000080
:103F20004572726F723A25732C25640D0A000000E9
:103F300070B506463546002E3AD0083D2C461D4940
:103F400060680968084008B1012000E0002028B935
:103F500040F2191218A122A0FCF7D6F9206808B97E
:103F6000012000E0002028B94FF48D7212A11CA09E
:103F7000FCF7CAF90F49606809680840C0B12068B9
:103F8000B0B90C49606809688843606000F054FA71
:103F90001749606809680844154908602046FEF71B
:103FA00013FA14480068401C1249086001F024F814
:103FB00070BD0000F00100202E2E5C465245455297
:103FC000544F535C706F727461626C655C4D656DCB
:103FD0004D616E675C686561705F342E6300000040
:103FE0004572726F723A25732C25640D0A00000029
:103FF000E0010020EC01002000204FF0E0210861EA
:104000008861064800684FF47A71B0FBF1F0401EF9
:104010004FF0E0214861072008617047040000204C
:1040200070B5FCF74BF90546102D11D305F1E020D2
:1040300090F8F04310480078844201DB012000E052
:10404000002028B940F2A5220CA117A0FCF75CF9CA
:104050001948006800F4E06018490968884201D8EE
:10406000012000E0002028B940F2B52203A10EA0F3
:10407000FCF74AF970BD0000F80100202E2E5C46C6
:1040800052454552544F535C706F727461626C6557
:104090005C525644535C41524D5F434D335C706FEC
:1040A00072742E63000000004572726F723A2573BD
:1040B0002C25640D0A0000000CED00E0FC0100203E
:1040C000024600200BE0084B53F8303033B9064B62
:1040D00043F8301003EBC0035A6002E0401C08288C
:1040E000F1D300BF70470000A80500202DE9F04182
:1040F00005460E4617462C46FFF79EFE94F94400EF
:10410000401C10B9002084F8440094F94500401C7C
:1041100010B9002084F84500FFF7D2FEA06B28B943
:104120003A46314604F1240000F002F92046FEF739
:1041300022FCBDE8F081000070B504460025ACB15A
:104140000F48006808B9012000E0002028B940F2BB
:1041500044520CA110A0FCF7D7F800F06DF9002133
:104160002046FDF7B7FE00F047FF05463DB94FF08A
:1041700080500D490860BFF34F8FBFF36F8F70BD44
:10418000BC0100202E2E5C4652454552544F535CD4
:104190007461736B732E63004572726F723A25738C
:1041A0002C25640D0A00000004ED00E070B5054602
:1041B000FFF742FE15B92D48006800E02846044686
:1041C000201DFFF7EFFD78B9E06A00EB8000284979
:1041D00051F8200040B994F82C100120884025495E
:1041E0000968814323480160A06A18B104F11800EE
:1041F000FFF7D8FD20480068401C1F4908601B4895
:104200000068844209D1211D1C48FFF709FE1C48A3
:104210000068401C1A49086009E01A480068401EFE
:10422000184908602046FDF7A7FFFEF7CFFAFFF711
:1042300047FE15480068C0B10C480068844214D19C
:104240001248006808B9012000E0002028B940F2B7
:10425000DA420FA113A0FCF757F84FF08050154930
:104260000860BFF34F8FBFF36F8F70BD84010020D4
:10427000E80500209C010020B0010020A4080020D7
:104280009001002094010020A0010020BC0100202A
:104290002E2E5C4652454552544F535C7461736BED
:1042A000732E63004572726F723A25732C25640D6C
:1042B0000A00000004ED00E00349096801600349B9
:1042C0000968416070470000AC010020980100209F
:1042D0000120014908607047A801002070B504461C
:1042E0000D462CB940F6FA3207A10CA0FCF70CF8E9
:1042F0000E48016818312046FFF778FD0121284655
:10430000FDF7E8FD70BD00002E2E5C46524545527B
:10431000544F535C7461736B732E63004572726FFC
:10432000723A25732C25640D0A00000084010020D8
:1043300070B505460E4614462DB940F6254209A132
:104340000DA0FBF7E1FF1048016818312846FFF780
:1043500067FD0CB14FF0FF3621463046FDF7BAFD40
:1043600070BD00002E2E5C4652454552544F535CA2
:104370007461736B732E63004572726F723A2573AA
:104380002C25640D0A000000840100201CB51A4889
:1043900000210B468222CDE9001018A1194800F037
:1043A0006FFC0446012C02D100F0B6FE0446012C3D
:1043B00015D100BF502080F31188BFF34F8FBFF39A
:1043C0006F8F00BF4FF0FF300F49086001200F4989
:1043D000086000200E49086000F08CF80BE0601CBB
:1043E00008B1012000E0002028B940F62A0209A106
:1043F0000DA0FBF789FF1CBDB801002049444C45C6
:104400000000000031220008B4010020A0010020BB
:10441000980100202E2E5C4652454552544F535C65
:104420007461736B732E63004572726F723A2573F9
:104430002C25640D0A00000002480068401C014958
:1044400008607047BC01002010B51B48006818B117
:1044500001201A4908602DE000201849086018481A
:104460000068B0FA80F0C0F11F0404EB8400154925
:1044700051F8200008B1012000E0002028B940F6E2
:10448000E13211A115A0FBF73FFF04EB84010D4AB7
:1044900002EB810041684968416000F1080142680F
:1044A0008A4202D14168496841604168C9680F4A3F
:1044B000116000BF10BD0000BC010020A801002059
:1044C0009C010020E80500202E2E5C4652454552F6
:1044D000544F535C7461736B732E63004572726F3B
:1044E000723A25732C25640D0A0000008401002017
:1044F000016070471CB53B4C204600780190FF20BE
:10450000214608700846007800909DF8000000F0F1
:10451000F0009DF80010884201D1012000E0002049
:1045200028B94FF48A7230A13AA0FBF7EDFE9DF84E
:10453000000000F050003B49087007203A4908602D
:1045400009E039480068401E374908609DF80000BE
:104550004006000E00909DF8000000F080008028CA
:10456000EFD031480068C0F10700042801D10120D4
:1045700000E0002028B940F227121BA125A0FBF77C
:10458000C3FE29480068C0F10700042801D10120BA
:1045900000E0002028B94FF4987213A11DA0FBF78A
:1045A000B3FE2148006800021F49086008460088E1
:1045B00000F4E06008600B49019808701B4800682F
:1045C00040F47000194908600846006840F07040E7
:1045D0000860FFF711FD002015490860FBF738FE61
:1045E00000201CBD00E400E02E2E5C4652454552E2
:1045F000544F535C706F727461626C655C525644C8
:10460000535C41524D5F434D335C706F72742E6347
:10461000000000004572726F723A25732C25640DFC
:104620000A000000F8010020FC01002020ED00E05D
:10463000F401002010B500BF502080F31188BFF3B3
:104640004F8FBFF36F8F00BF00F060FB18B14FF0CA
:1046500080500449086000BF002080F3118800BF2B
:1046600010BD000004ED00E02DE9F84305460E46BC
:1046700017460DB1012000E0002028B94FF4BB72AD
:104680000CA111A0FBF740FE05FB06F909F154004F
:10469000FEF7BAF904464CB1A04608F154083B466F
:1046A0004246314628460094FDF7D6FD2046BDE837
:1046B000F88300002E2E5C4652454552544F535C01
:1046C00071756575652E63004572726F723A257358
:1046D0002C25640D0A00000070B505460E462C46D8
:1046E0002CB940F203121EA122A0FBF70DFEFFF72A
:1046F000A3FBD4E90F12206801FB0200A060002098
:10470000A06320686060E06B401E226C216800FBA3
:104710000211E160FF2084F8440084F845009EB94E
:10472000206908B9012000E00020A8B904F11000B8
:1047300000F008FC80B14FF0805012490860BFF3D0
:104740004F8FBFF36F8F07E004F11000FFF73EFBC0
:1047500004F12400FFF73AFBFFF7B2FB012070BD24
:104760002E2E5C4652454552544F535C717565750B
:10477000652E63004572726F723A25732C25640DA5
:104780000A00000004ED00E02DE9FF4782B0064674
:1047900088461D464FF0000934462CB940F2EA2203
:1047A00064A169A0FBF7B0FDB8F1000F01D1206C46
:1047B00008B9012000E0002028B940F2EB225DA1F9
:1047C00061A0FBF7A1FD022D02D1E06B012801D110
:1047D000012000E0002028B94FF43B7255A15AA0F7
:1047E000FBF792FD00F07CFA08B9049808B90120A3
:1047F00000E0002028B940F2EF224EA152A0FBF7C2
:1048000083FD00BFFFF718FBA06BE16B884201D36B
:10481000022D3ED1D4F838A02A4641462046FDF765
:104820006CFC0746A06C88B1022D02D1BAF1000FD2
:1048300029D12046FDF744FE28B34FF08050464969
:104840000860BFF34F8FBFF36F8F1CE0606A08B939
:10485000012000E0002068B904F1240000F072FBA0
:1048600088B14FF080503C490860BFF34F8FBFF3D1
:104870006F8F08E03FB14FF0805037490860BFF3B9
:104880004F8FBFF36F8FFFF71BFB012006B0BDE812
:10489000F087049818B9FFF713FB0020F6E7B9F189
:1048A000000F04D16846FFF707FD4FF00109FFF73D
:1048B00007FBFFF7C1FDFFF7BFFA94F94400401C66
:1048C00010B9002084F8440094F94500401C10B948
:1048D000002084F84500FFF7F3FA04A9684600F0C9
:1048E00081F9F8B92046FDF7DCFDA8B104F110000C
:1048F0000499FFF7F3FC2046FEF73DF800F07CFB3F
:1049000000287FF47FAF4FF0805013490860BFF359
:104910004F8FBFF36F8F75E72046FEF72CF800F03E
:104920006BFB6FE72046FEF726F800F065FB0020E2
:10493000ACE700002E2E5C4652454552544F535C66
:1049400071756575652E63004572726F723A2573D5
:104950002C25640D0A00000004ED00E02DE9F84F5D
:1049600080468A4615461E4644462CB94FF46F725F
:1049700037A13CA0FBF7C8FCBAF1000F01D1206CB5
:1049800008B9012000E0002028B940F2BD3230A172
:1049900034A0FBF7B9FC022E02D1E06B012801D153
:1049A000012000E0002028B940F2BE3228A12DA04D
:1049B000FBF7AAFCFFF734FB00BF5021EFF3118097
:1049C00081F31188BFF34F8FBFF36F8F00BF07468E
:1049D000A06BE16B884201D3022E30D194F945B02F
:1049E000A06B0090324651462046FDF786FB0BF146
:1049F0000100E0B9A06C58B1022E01D10098D8B9DD
:104A00002046FDF75DFDB8B1B5B10120286013E087
:104A1000606A08B9012000E0002068B904F12400B0
:104A200000F090FA40B13DB10120286004E00BF1A4
:104A3000010040B284F845004FF0010901E04FF059
:104A4000000900BF87F3118800BF4846BDE8F88F12
:104A50002E2E5C4652454552544F535C7175657518
:104A6000652E63004572726F723A25732C25640DB2
:104A70000A0000002DE9F74183B005460E464FF0CD
:104A800000082C462CB940F204524CA150A0FBF770
:104A90003BFC0EB9206C08B9012000E0002028B9C9
:104AA0004FF4A16245A14AA0FBF72EFC00F018F9D3
:104AB00008B9059808B9012000E0002028B940F2A3
:104AC0000D523EA142A0FBF71FFC00BFFFF7B4F957
:104AD000A76BF7B131462046FDF7FAFA781EA063BE
:104AE000206908B9012000E0002060B904F110003D
:104AF00000F028FA38B14FF0805039490860BFF310
:104B00004F8FBFF36F8FFFF7DBF9012006B0BDE8D1
:104B1000F081059818B9FFF7D3F90020F6E7B8F14E
:104B2000000F04D101A8FFF7C7FB4FF00108FFF702
:104B3000C7F9FFF781FCFFF77FF994F94400401CA7
:104B400010B9002084F8440094F94500401C10B9C5
:104B5000002084F84500FFF7B3F905A901A800F08B
:104B600041F8F0B92046FDF78FFCA0B104F1240014
:104B70000599FFF7B3FB2046FDF7FDFE00F03CFA78
:104B80000028A3D14FF0805015490860BFF34F8F24
:104B9000BFF36F8F9AE72046FDF7EDFE00F02CFA89
:104BA00094E72046FDF7E7FE00F026FA2046FDF7E1
:104BB0006BFC00288AD00020A8E700002E2E5C465F
:104BC00052454552544F535C71756575652E6300AF
:104BD0004572726F723A25732C25640D0A0000002D
:104BE00004ED00E070B505460C462DB940F6CE4206
:104BF00018A11DA0FBF788FB2CB940F6CF4215A1E8
:104C000019A0FBF781FBFFF717F91B4802686868DA
:104C1000131A2068401C08B9002617E017492868B5
:104C20000968884204D06868904201D801260DE0E6
:104C30002068984207D92068C01A20602846FFF7EC
:104C40003BFB002602E0002020600126FFF738F938
:104C5000304670BD2E2E5C4652454552544F535C33
:104C60007461736B732E63004572726F723A2573B1
:104C70002C25640D0A00000098010020AC010020E2
:104C80002DE9FF4F85B0804689461746DDE912AB16
:104C9000B800FDF7B9FE064656B15C20FDF7B4FE3C
:104CA00004460CB1266304E03046FFF741F900E00A
:104CB00000247CB10020CDE900ABCDE902403A46AA
:104CC00049464046089BFDF7DFFA2046FDF74EF9BE
:104CD000012501E04FF0FF35284609B0BDE8F08F0F
:104CE0000549096809B9012005E00449096809B9BD
:104CF000022000E000207047A0010020BC0100203D
:104D00000149086870470000980100202DE9F04132
:104D10004FF0000841480068002877D140480068FB
:104D2000451C3F480560EDB93E480068006808B979
:104D3000012000E0002028B940F6A9223AA13FA0B6
:104D4000FBF7E2FA374807684048006835490860D1
:104D50003E4807603E480068401C3D490860FDF73A
:104D600035FD00BF3B48006885423CD300BF2D485D
:104D70000068006808B9012000E0002020B14FF071
:104D8000FF30344908602DE026480068C068C468D8
:104D90006668B54202D22F48066023E0201DFFF767
:104DA00001F8A06A18B104F11800FEF7FBFF94F8AF
:104DB0002C100120884028490968084326490860CA
:104DC000E16A01EB8101254A02EB8100211DFFF719
:104DD00027F82349E06A0968C96A8842C7D34FF0B7
:104DE0000108C4E700BF1E480068C06A00EB8000ED
:104DF0001A4951F82000012801D94FF0010819483B
:104E0000006808B14FF0010805E0FFE716480068A8
:104E1000401C154908604046BDE8F081BC010020F7
:104E200098010020880100202E2E5C4652454552F4
:104E3000544F535C7461736B732E63004572726FD1
:104E4000723A25732C25640D0A0000008C010020A5
:104E5000AC010020B40100209C010020E8050020E6
:104E600084010020A8010020A401002070B505469F
:104E70002C460026002D4BD026480068844201D1E4
:104E8000012000E0002028B941F2130222A127A04E
:104E9000FBF73AFA206D28B941F214021EA123A0B3
:104EA000FBF732FA206D401E2065E16CE06A884213
:104EB0002ED0206D60BB201DFEF774FF78B9E06A2C
:104EC00000EB80001D4951F8200040B994F82C10E7
:104ED000012088401A490968814319480160E06C43
:104EE000E062E06AC0F12000A06194F82C1001207B
:104EF000884013490968084311490860E16A01EBD9
:104F000081010E4A02EB8100211DFEF789FF012677
:104F1000304670BD840100202E2E5C46524545521D
:104F2000544F535C7461736B732E63004572726FE0
:104F3000723A25732C25640D0A000000E805002054
:104F40009C01002070B50646F068C4682CB940F694
:104F500055421AA11EA0FBF7D7F904F11800FEF77D
:104F600021FF1F480068A8B9201DFEF71BFF94F819
:104F70002C10012088401B49096808431949086022
:104F8000E16A01EB8101184A02EB8100211DFEF765
:104F900047FF04E004F118011448FEF741FF1449EB
:104FA000E06A0968C96A884204D9012501201149CB
:104FB000086000E00025284670BD00002E2E5C46EB
:104FC00052454552544F535C7461736B732E6300AA
:104FD0004572726F723A25732C25640D0A00000029
:104FE000BC0100209C010020E80500209008002062
:104FF00084010020A801002070B500240026344858
:10500000006828B940F6990232A137A0FBF77CF975
:10501000FEF712FF2E480068401E2D490860084622
:10502000006800284FD13448006800284BD024E0A5
:105030003248C068C46804F11800FEF7B3FE201DB2
:10504000FEF7B0FE94F82C10012088402C49096826
:1050500008432B490860E16A01EB8101294A02EB10
:105060008100211DFEF7DCFE2749E06A0968C96A54
:10507000884202D30120254908602048006808B909
:10508000012000E000200028D2D00CB1FDF79EFBEB
:105090001F48056865B100BFFFF738FE10B1012059
:1050A0001A4908606D1E002DF6D1002018490860CD
:1050B0001648006838B10126300716490860BFF36A
:1050C0004F8FBFF36F8FFEF7FBFE304670BD0000C1
:1050D000BC0100202E2E5C4652454552544F535C75
:1050E0007461736B732E63004572726F723A25732D
:1050F0002C25640D0A000000940100209008002077
:105100009C010020E805002084010020A801002067
:10511000A401002004ED00E01CB50024FCF782FF90
:105120000B48006858B10B481F2100234FF48272CE
:10513000CDE9001008A10A48FFF7A2FD04462CB9EA
:1051400040F2131207A10DA0FBF7DEF820461CBDAC
:10515000C8010020CC010020546D722053766300FA
:105160005D2900082E2E5C4652454552544F535C33
:1051700074696D6572732E63000000004572726F72
:10518000723A25732C25640D0A0000002DE9FF47B3
:1051900004460D4616461F46DDF830804FF00009E4
:1051A0002CB94FF4C17217A11CA0FBF7ADF81F4832
:1051B000006810B3009501960294062D15DAFFF7EA
:1051C0008FFD022808D1002342466946174800682F
:1051D000FFF7DAFA814610E000231A4669461348C1
:1051E0000068FFF7D1FA814607E000233A46694696
:1051F0000E480068FFF7B2FB8146484604B0BDE8A0
:10520000F08700002E2E5C4652454552544F535CA9
:1052100074696D6572732E63000000004572726FD1
:10522000723A25732C25640D0A000000C801002085
:105230000003030601040602050003051F1C1F1ED0
:105240001F1E1F1F1E1F1E1F3031323334353637CD
:1052500038394142434445464030580030313233BA
:1052600034353637383961626364656640307800BA
:10527000040000080000000000000002000100001F
:10528000100000003F0000006465630069640000D6
:1052900072756E74696D650068656C700000000061
:1052A0006C697374000000006865780075382052DE
:1052B00054435F5365742875313620737965617284
:1052C0002C753820736D6F6E2C753820736461797E
:1052D0002C753820686F75722C7538206D696E2CAE
:1052E0007538207365632900766F69642077726969
:1052F00074655F616464722875333220616464721E
:105300002C7533322076616C290000007533322011
:10531000726561645F616464722875333220616410
:1053200064722900766F69642064656C61795F6DD1
:105330007328753136206E6D73290000766F6964AD
:105340002064656C61795F757328753332206E75E2
:1053500073290000745300080000002010020000B0
:105360006C010008EC53000810020020485D0000AA
:10537000C80100085184A24A04C0090102030406BE
:10538000070809021501292A692E250204060813B7
:1053900084521B0898041AA0041A8C041AA8041A30
:1053A00088041A9004138D2B14080C531408F1442C
:1053B0001B08E81013D51D1B08241013191E1B0809
:1053C0003C081301141B08AC18226814206534141F
:1053D00008B12C1C08612D28190C0A16058301FF41
:0C53E00001381AAA01011423AC0D0000D2
:0400000508000131BD
:00000001FF
